:100000000C943E000C9450000C9450000C94500042
:100010000C9450000C9450000C9450000C94500020
:100020000C9450000C9450000C9450000C94500010
:100030000C9450000C9450000C9450000C94500000
:100040000C9450000C9450000C9450000C945000F0
:100050000C9450000C9450000C9450000C945000E0
:100060000C9450000C9450000C9450000C945000D0
:100070000C9450000C9450000C94500011241FBE9E
:10008000CFEFD8E0DEBFCDBF21E0A0E0B1E001C0FE
:100090001D92A130B207E1F70E947C000C94C600CB
:1000A0000C94000099B181E0943009F080E008954B
:1000B00091E082E029B1243079F495B9EFE0F7E2DC
:1000C0003197F1F700C0000085B9EFE0F7E2319712
:1000D000F1F700C00000EECF089589B1843051F4EB
:1000E0008FE39CE90197F1F700C0000099B181E02E
:1000F000943009F080E008951AB88FEF84B915E0C4
:10010000C1E004E0FF24F394D2E083E0E82E809184
:100110000001823019F150F48823A9F08130C9F729
:1001200089B18430C1F40E945800FACF843031F193
:10013000E8F0853071F7D5B90E946D008111E7CFE5
:1001400010920001E4CFC5B90E946D008823F9F236
:10015000F0920001DCCFD0930001D9CF85B90E9485
:100160006D008823A1F2E0920001D1CF89B18430E3
:1001700011F4C5B9FBCF00930001C9CF15B80E9497
:100180006D00882321F210930001C1CFF894FFCFB6
:00000001FF
