:100000000C943E000C9448000C9448000C9448005A
:100010000C9448000C9448000C9448000C94480040
:100020000C9448000C9448000C9448000C94480030
:100030000C9448000C9448000C9448000C94480020
:100040000C9448000C9448000C9448000C94480010
:100050000C9448000C9448000C9448000C94480000
:100060000C9448000C9448000C9448000C944800F0
:100070000C9448000C9448000C94480011241FBEB6
:10008000CFEFD8E0DEBFCDBF0E944A000C946600DF
:100090000C9400008FEF81B984B987B91AB881E058
:1000A00092E04A9B11C0EFE1FEE43197F1F700C006
:1000B00000004A9B09C085B9EFE1FEE43197F1F7F2
:1000C00000C0000095B9EFCF15B8EBCFF894FFCF83
:00000001FF
