:100000000C943E000C9450000C9450000C94500042
:100010000C9450000C9450000C9450000C94500020
:100020000C9450000C9450000C9450000C94500010
:100030000C9450000C9450000C9450000C94500000
:100040000C9450000C9450000C9450000C945000F0
:100050000C9450000C9450000C9450000C945000E0
:100060000C9450000C9450000C9450000C945000D0
:100070000C9450000C9450000C94500011241FBE9E
:10008000CFEFD8E0DEBFCDBF21E0A0E0B1E001C0FE
:100090001D92A130B207E1F70E9468000C94D100D4
:1000A0000C94000099B181E0943009F080E008954B
:1000B00089B1843059F48FE39CE90197F1F700C0CE
:1000C000000089B18430E9F381E0089580E008956B
:1000D0001AB88FEF84B9D5E014E0C1E002E083E004
:1000E000F82E80910001823091F188F4882309F183
:1000F0008130C9F78FE39CE90197F1F700C0000058
:100100000E945800882369F300930001EACF8430ED
:10011000D1F158F1853039F7C5B99FEF29E688E16B
:10012000915020408040E1F700C000001092000193
:10013000D8CF15B88FE39CE90197F1F700C0000014
:100140000E945800882369F2C0930001CACF8FE350
:100150009CE90197F1F700C000000E945800882335
:1001600009F4BFCFF0920001BCCF8FE39CE9019767
:10017000F1F700C000000E945800882309F4B1CFB5
:1001800010930001AECF8FE39CE90197F1F700C017
:1001900000000E945800882309F4A3CFD0930001E7
:0601A000A0CFF894FFCF90
:00000001FF
